{
  "contractName": "Complain",
  "abi": [
    {
      "constant": false,
      "inputs": [],
      "name": "OpenComplainNetwork",
      "outputs": [],
      "payable": false,
      "stateMutability": "nonpayable",
      "type": "function"
    },
    {
      "constant": false,
      "inputs": [
        {
          "name": "data",
          "type": "string"
        },
        {
          "name": "long",
          "type": "uint256"
        },
        {
          "name": "lat",
          "type": "uint256"
        },
        {
          "name": "cat",
          "type": "uint256"
        }
      ],
      "name": "registerComplain",
      "outputs": [
        {
          "name": "",
          "type": "uint256"
        }
      ],
      "payable": true,
      "stateMutability": "payable",
      "type": "function"
    },
    {
      "constant": true,
      "inputs": [
        {
          "name": "cid",
          "type": "uint256"
        }
      ],
      "name": "viewComplain",
      "outputs": [
        {
          "name": "",
          "type": "uint256"
        },
        {
          "name": "",
          "type": "uint256"
        },
        {
          "name": "",
          "type": "uint256"
        },
        {
          "name": "",
          "type": "uint256"
        },
        {
          "name": "",
          "type": "string"
        },
        {
          "name": "",
          "type": "uint8"
        }
      ],
      "payable": false,
      "stateMutability": "view",
      "type": "function"
    },
    {
      "constant": false,
      "inputs": [
        {
          "name": "cid",
          "type": "uint256"
        },
        {
          "name": "sta",
          "type": "uint8"
        }
      ],
      "name": "changeStatus",
      "outputs": [],
      "payable": false,
      "stateMutability": "nonpayable",
      "type": "function"
    },
    {
      "constant": false,
      "inputs": [
        {
          "name": "cid",
          "type": "uint256"
        }
      ],
      "name": "declineProposal",
      "outputs": [],
      "payable": false,
      "stateMutability": "nonpayable",
      "type": "function"
    },
    {
      "constant": false,
      "inputs": [
        {
          "name": "accounts",
          "type": "address[]"
        }
      ],
      "name": "modifyPoliceAccounts",
      "outputs": [],
      "payable": false,
      "stateMutability": "nonpayable",
      "type": "function"
    },
    {
      "constant": false,
      "inputs": [
        {
          "name": "cid",
          "type": "uint256"
        }
      ],
      "name": "claimSolution",
      "outputs": [],
      "payable": false,
      "stateMutability": "nonpayable",
      "type": "function"
    },
    {
      "constant": true,
      "inputs": [
        {
          "name": "pid",
          "type": "address"
        }
      ],
      "name": "checkIfPoliceAccount",
      "outputs": [
        {
          "name": "",
          "type": "bool"
        }
      ],
      "payable": false,
      "stateMutability": "view",
      "type": "function"
    }
  ],
  "bytecode": "0x6060604052341561000f57600080fd5b610cc58061001e6000396000f30060606040526004361061008e576000357c0100000000000000000000000000000000000000000000000000000000900463ffffffff16806337465820146100935780633c98539d146101605780637a492ebb146101ba5780639d3d24bc1461020b578063ac092c8f1461022e578063b62d263314610243578063c5a8a2ab146102c4578063cc48bf16146102f3575b600080fd5b341561009e57600080fd5b6100b46004808035906020019091905050610316565b60405180878152602001868152602001858152602001848152602001806020018360038111156100e057fe5b60ff168152602001828103825284818151815260200191508051906020019080838360005b83811015610120578082015181840152602081019050610105565b50505050905090810190601f16801561014d5780820380516001836020036101000a031916815260200191505b5097505050505050505060405180910390f35b341561016b57600080fd5b6101b8600480803590602001908201803590602001908080602002602001604051908101604052809392919081815260200183836020028082843782019150505050505091905050610457565b005b34156101c557600080fd5b6101f1600480803573ffffffffffffffffffffffffffffffffffffffff16906020019091905050610543565b604051808215151515815260200191505060405180910390f35b341561021657600080fd5b61022c6004808035906020019091905050610599565b005b341561023957600080fd5b6102416106b2565b005b6102ae600480803590602001908201803590602001908080601f016020809104026020016040519081016040528093929190818152602001838380828437820191505050505050919080359060200190919080359060200190919080359060200190919050506106fc565b6040518082815260200191505060405180910390f35b34156102cf57600080fd5b6102f1600480803590602001909190803560ff169060200190919050506108ee565b005b34156102fe57600080fd5b6103146004808035906020019091905050610a42565b005b600080600080610324610b88565b6000866001600089815260200190815260200160002060010154600160008a815260200190815260200160002060000154600160008b815260200190815260200160002060020154600160008c8152602001908152602001600020600301600160008d815260200190815260200160002060040160149054906101000a900460ff16818054600181600116156101000203166002900480601f01602080910402602001604051908101604052809291908181526020018280546001816001161561010002031660029004801561043b5780601f106104105761010080835404028352916020019161043b565b820191906000526020600020905b81548152906001019060200180831161041e57829003601f168201915b5050505050915095509550955095509550955091939550919395565b6000600360009054906101000a900473ffffffffffffffffffffffffffffffffffffffff1673ffffffffffffffffffffffffffffffffffffffff163373ffffffffffffffffffffffffffffffffffffffff161415156104b557600080fd5b600090505b815181101561053f5760016002600084848151811015156104d757fe5b9060200190602002015173ffffffffffffffffffffffffffffffffffffffff1673ffffffffffffffffffffffffffffffffffffffff16815260200190815260200160002060006101000a81548160ff02191690831515021790555080806001019150506104ba565b5050565b6000600260008373ffffffffffffffffffffffffffffffffffffffff1673ffffffffffffffffffffffffffffffffffffffff16815260200190815260200160002060009054906101000a900460ff169050919050565b600160038111156105a657fe5b6001600083815260200190815260200160002060040160149054906101000a900460ff1660038111156105d557fe5b148061061a5750600060038111156105e957fe5b6001600083815260200190815260200160002060040160149054906101000a900460ff16600381111561061857fe5b145b151561062557600080fd5b60036001600083815260200190815260200160002060040160146101000a81548160ff0219169083600381111561065857fe5b0217905550336004600083815260200190815260200160002060006101000a81548173ffffffffffffffffffffffffffffffffffffffff021916908373ffffffffffffffffffffffffffffffffffffffff16021790555050565b33600360006101000a81548173ffffffffffffffffffffffffffffffffffffffff021916908373ffffffffffffffffffffffffffffffffffffffff16021790555060008081905550565b6000836001600080548152602001908152602001600020600101819055508260016000805481526020019081526020016000206000018190555081600160008054815260200190815260200160002060020181905550846001600080548152602001908152602001600020600301908051906020019061077d929190610b9c565b5033600160008054815260200190815260200160002060040160006101000a81548173ffffffffffffffffffffffffffffffffffffffff021916908373ffffffffffffffffffffffffffffffffffffffff1602179055506000600160008054815260200190815260200160002060040160146101000a81548160ff0219169083600381111561080857fe5b021790555060003411156108cd576001600080548152602001908152602001600020600601805480600101828161083f9190610c1c565b9160005260206000209001600033909190916101000a81548173ffffffffffffffffffffffffffffffffffffffff021916908373ffffffffffffffffffffffffffffffffffffffff16021790555050600160008054815260200190815260200160002060070180548060010182816108b79190610c48565b9160005260206000209001600034909190915055505b60008081548092919060010191905055506001600054039050949350505050565b60011515600260003373ffffffffffffffffffffffffffffffffffffffff1673ffffffffffffffffffffffffffffffffffffffff16815260200190815260200160002060009054906101000a900460ff16151514151561094d57600080fd5b6002600381111561095a57fe5b81600381111561096657fe5b11158061098a57506000600381111561097b57fe5b81600381111561098757fe5b10155b151561099557600080fd5b806001600084815260200190815260200160002060040160146101000a81548160ff021916908360038111156109c757fe5b0217905550600260038111156109d957fe5b8160038111156109e557fe5b1415610a3e57336004600084815260200190815260200160002060006101000a81548173ffffffffffffffffffffffffffffffffffffffff021916908373ffffffffffffffffffffffffffffffffffffffff1602179055505b5050565b806001600082815260200190815260200160002060040160009054906101000a900473ffffffffffffffffffffffffffffffffffffffff1673ffffffffffffffffffffffffffffffffffffffff163373ffffffffffffffffffffffffffffffffffffffff16141515610ab357600080fd5b600380811115610abf57fe5b6001600084815260200190815260200160002060040160149054906101000a900460ff166003811115610aee57fe5b141515610afa57600080fd5b600180600084815260200190815260200160002060040160146101000a81548160ff02191690836003811115610b2c57fe5b021790555060006004600084815260200190815260200160002060006101000a81548173ffffffffffffffffffffffffffffffffffffffff021916908373ffffffffffffffffffffffffffffffffffffffff1602179055505050565b602060405190810160405280600081525090565b828054600181600116156101000203166002900490600052602060002090601f016020900481019282601f10610bdd57805160ff1916838001178555610c0b565b82800160010185558215610c0b579182015b82811115610c0a578251825591602001919060010190610bef565b5b509050610c189190610c74565b5090565b815481835581811511610c4357818360005260206000209182019101610c429190610c74565b5b505050565b815481835581811511610c6f57818360005260206000209182019101610c6e9190610c74565b5b505050565b610c9691905b80821115610c92576000816000905550600101610c7a565b5090565b905600a165627a7a72305820eb7d316c31f9b21e5ab70b15a5d9265a9fc2785fc412ca252815f3dbbc5c21d60029",
  "source": "pragma solidity ^0.4.4;\n\ncontract Complain {\n\n  enum Status { Pending, Accepted, Resolved, Proposed }\n\n    struct Complain_Reg{\n        /*bytes[50] _name;\n        bytes[50] _address;\n        bytes[50] _desc;\n        bytes[50] _location;\n        bytes[50] _category;*/\n        uint _lat;\n        uint _long;\n        uint _category;\n        string _data;\n        address _personID;\n        Status _status;\n        //uint _reward;\n        address _policeAssigned;\n        address[] _contributors;\n        uint[] _contAmount;\n    }\n\n    uint private complainCounter;\n    mapping(uint => Complain_Reg) private complainMap;\n    mapping(address => bool) private policeAccounts;\n    address private superuser;\n    mapping(uint => address) private complainSolver;\n\n    function OpenComplainNetwork() public {\n        superuser = msg.sender;\n        complainCounter = 0;\n    }\n\n    modifier superuserAccess() {\n        require(msg.sender == superuser);\n        _;\n    }\n\n    modifier policeAccess {\n        require(policeAccounts[msg.sender] == true);\n        _;\n    }\n\n    modifier complainOwnerAccess(uint cid) {\n        require(msg.sender == complainMap[cid]._personID);\n        _;\n    }\n\n    modifier complainOwnOrPoliceAccess(uint cid) {\n        require(policeAccounts[msg.sender] == true || msg.sender == complainMap[cid]._personID);\n        _;\n    }\n\n    //Registering Complains\n    function registerComplain(string data, uint long, uint lat, uint cat) public payable returns(uint) {\n        complainMap[complainCounter]._long = long;\n        complainMap[complainCounter]._lat = lat;\n        complainMap[complainCounter]._category = cat;\n        complainMap[complainCounter]._data = data;\n        complainMap[complainCounter]._personID = msg.sender;\n        complainMap[complainCounter]._status = Status.Pending;\n        //complainMap[complainCounter]._reward = msg.value;\n\n        if(msg.value > 0) {\n            complainMap[complainCounter]._contributors.push(msg.sender);\n            complainMap[complainCounter]._contAmount.push(msg.value);\n        }\n        /*for(uint i=0; i<data.length; i++) {\n            complainMap[complainCounter]._data[i] = data[i];\n        }*/\n        complainCounter++;\n\n        return complainCounter-1;\n    }\n\n    //View complains \"complainMap[cid]._reward\"\n    function viewComplain(uint cid) public constant returns (uint, uint, uint, uint, string, Status) {\n        return (cid, complainMap[cid]._long, complainMap[cid]._lat, complainMap[cid]._category, complainMap[cid]._data, complainMap[cid]._status);\n    }\n\n    //Change status of complain\n    function changeStatus(uint cid, Status sta) public policeAccess {\n        require((sta <= Status.Resolved) || (sta >= Status.Pending));\n        complainMap[cid]._status = sta;\n        //if someone else solved then police update to resolved\n        if(sta == Status.Resolved) {\n            complainSolver[cid] = msg.sender;\n        }\n    }\n\n    // Even though Police can resolve and close the complain.\n    // Complainee would be responsible for transfering the funds, if any.\n  /*  function resolve(uint cid) public complainOwnerAccess(cid) {\n        complainMap[cid]._status = Status.Resolved;\n\n        transferFundOnResolve(cid);\n    }*/\n\n    //to be used in UI for entering the proposal\n    function declineProposal(uint cid) public complainOwnerAccess(cid) {\n        require( complainMap[cid]._status == Status.Proposed );\n        complainMap[cid]._status = Status.Accepted;\n        complainSolver[cid] = 0;\n    }\n\n    // If someone other than police solved the complain transfer funds to solver.\n    // Otherwise send them back to the contributors.\n    /*function transferFundOnResolve(uint cid) private {\n        // Could also be used: complainMap[cid]._status == Status.Resolved &&\n        if(complainMap[cid]._reward > 0) {\n            if(policeAccounts[complainSolver[cid]] != true) {\n                complainSolver[cid].transfer( complainMap[cid]._reward );\n                complainMap[cid]._reward = 0;\n            }\n            else {\n                for(uint i=0; i<complainMap[cid]._contributors.length; i++) {\n                    complainMap[cid]._contributors[i].transfer( complainMap[cid]._contAmount[i] );\n                }\n                complainMap[cid]._reward = 0;\n\n            }\n        }\n    }*/\n\n    //Add police accounts\n    function modifyPoliceAccounts(address[] accounts) public superuserAccess {\n        for(uint i=0; i<accounts.length; i++) {\n            policeAccounts[accounts[i]] = true;\n        }\n    }\n\n    //fund complain will be used latter on\n    /*function fundComplain(uint cid) public payable {\n        require((complainMap[cid]._status == Status.Accepted) || (complainMap[cid]._status == Status.Proposed));\n        complainMap[cid]._reward += msg.value;\n        complainMap[cid]._contributors.push(msg.sender);\n        complainMap[cid]._contAmount.push(msg.value);\n    }*/\n\n    function claimSolution(uint cid) public {\n        // Police should accept the complain first.\n        require(complainMap[cid]._status == Status.Accepted || complainMap[cid]._status == Status.Pending);\n        complainMap[cid]._status = Status.Proposed;\n        complainSolver[cid] = msg.sender;\n    }\n\n    /*function checkFund() public constant returns(uint) {\n        return this.balance;\n    }*/\n\n    function checkIfPoliceAccount(address pid) public constant returns(bool) {\n        return policeAccounts[pid];\n    }\n\n}\n",
  "sourcePath": "/home/deep/Desktop/Rjajasthan-hackathon/RCN/rcn-hackathon/src/truffle-contracts/contracts/Complain.sol",
  "compiler": {
    "name": "solc",
    "version": "0.4.19+commit.c4cbbb05.Emscripten.clang"
  },
  "schemaVersion": "2.0.0",
  "updatedAt": "2018-03-19T20:51:50.661Z"
}